:020000022000DC
:1060000000000120756302005D6302005F6302000F
:106010006163020063630200656302000000000028
:1060200000000000000000000000000067630200A4
:1060300069630200000000006B6302006D630200F0
:10604000698C02006F6302006D9002006F630200B2
:106050006F6302006F630200218F02006F63020012
:106060006F6302006F6302006F6302006F630200E0
:106070006F6302006F6302006F6302006F630200D0
:106080006F630200C57A02006F6302006F63020053
:106090006F6302006F630200A9BF02006F6302001A
:1060A0006F6302006F6302006F6302006F630200A0
:1060B0006F6302006F630200000000000000000038
:1060C0006F6302006F6302006F6302006F63020080
:1060D0006F6302006F6302006F6302000000000044
:1060E00000000000000000000000000000000000B0
:1060F00000000000000000000000000000000000A0
:10610000000000000000000000000000000000008F
:10611000000000000000000000000000000000007F
:10612000000000000000000000000000000000006F
:10613000000000000000000000000000000000005F
:10614000000000000000000000000000000000004F
:10615000000000000000000000000000000000003F
:10616000000000000000000000000000000000002F
:10617000000000000000000000000000000000001F
:10618000000000000000000000000000000000000F
:1061900000000000000000000000000000000000FF
:1061A00000000000000000000000000000000000EF
:1061B00000000000000000000000000000000000DF
:1061C00000000000000000000000000000000000CF
:1061D00000000000000000000000000000000000BF
:1061E00000000000000000000000000000000000AF
:1061F000000000000000000000000000000000009F
:10620000354936480A1A02D0072291438D4634494F
:1062100034480A1A06D00722914381F309880222E2
:1062200082F3148830483149314A00F044F831484B
:106230003149324A00F03FF831483249324A00F0E1
:106240003AF832483249334A00F035F83248334997
:10625000334A00F030F833483349344A00F02BF821
:1062600033483449344A00F026F83448344900228F
:1062700000F02CF833483449002200F027F8334866
:106280003349091A082902DB002202604160314AC1
:1062900090471F481F49884205D00268043003B464
:1062A000904703BCF7E700208646EC46002000211B
:1062B000294A9047FEE7884207D0521A05D0037852
:1062C00001300B700131013AF9D17047884202D098
:1062D00002700130FAE770470000012000E0002062
:1062E0000000012000000120A0DC0200282A00207C
:1062F000CC300020D0630200D063020064C60200EC
:10630000A0DC0200282A0020282A0020A4C70200BE
:10631000A4C70200A4C70200A4C70200A4C70200C9
:10632000A4C70200A4C70200A4C70200A0DC0200A8
:1063300044E30200CC300020CC300020CC300020E0
:10634000A0400020A0400020A0400020A04000204D
:10635000A06000209D6302003DA50200FEE7FEE76D
:10636000FEE7FEE7FEE7FEE7FEE7FEE7FEE7FEE705
:1063700000F002B8FFF7FCBF0F484FF00701884359
:1063800085460E4880470E48016841F4700101605F
:10639000BFF34F8FBFF36F8FFFF732BF09480A4932
:1063A0000A4A884207D0521A05D0037801300B7090
:1063B0000131013AF9D17047000001200186020045
:1063C00088ED00E0A4C70200282A0020282A002027
:1063D0007047000007B5044B0093044A402300F0C7
:1063E00032F803B05DF804FBF1630200CD30002009
:1063F0002DE9F84388461446B2B10F4B0F4E0325E2
:10640000002743F00109224608EB0701002004F0B1
:10641000F1F90744241A48B933782BB14FF47A4084
:10642000C847013D02D13570BDE8F88301233370C0
:10643000002CE8D1F8E700BFB0C70200CC30002044
:10644000704704F007BAF0B595B01D4616460846E9
:106450000C4601F0BDFE1A9B0D93CDE908650025A1
:106460002B46082205A920460A958DF82C500C953C
:1064700001F0CAFE079B0293069B03939DF814301C
:106480008DF8115003F00302012A1DD1BDF814202C
:10649000059DC3F3C203C2F383168DF81030B2001A
:1064A00008230EA9204601F0AFFEC5F3952508ABE1
:1064B0000093324602AB0EA9284600F061FB20464D
:1064C00001F08AFE15B0F0BD022AF8D1BDF81650D1
:1064D000C3F3C203C5F389158DF810300827082DC2
:1064E0002E4628BF08263B4632460EA9204601F01C
:1064F0008BFEAD1B08AB02AA31460EA8374400F054
:10650000A3FB002DEBD1DAE708B5FFF79AFF0448AB
:10651000042100F09FFA034B01225A7108BD00BF0D
:1065200094C70200282A0020037813F0040216D032
:1065300003F00303012B03D0022B09D00120704785
:106540000A6800880232C0F3831002440A60F5E74B
:106550000B684288023303EB92130B60EEE71046A0
:10656000704700002DE9F04FDFF81CA187B00F46FF
:1065700000230446861C0DF1070015468DF80730F0
:1065800001F032F9DAF804203A60DAF8083003F55D
:1065900080739B1A0AF21C470AF583690AF21448B1
:1065A000B3421AD30020002D69D004F00F039B01E1
:1065B00043F0050363F30F00DAF80430DAB2033274
:1065C00033444AF822009DF80700CAF8043001F06D
:1065D0002FF9012007B0BDE8F08F0121384601F006
:1065E00026FB484601F03BFB404601F038FBDAF859
:1065F00008000290C0B203300AEB800002A9FFF746
:1066000093FF029B30BBDAB20AEB8202D16803919E
:106610009A1C0133DBB20AEB83030292D3F80CB06D
:1066200001F00303012B22D0022B15D083464046F4
:1066300001F018FB10B1029BCAF8083059463846E1
:1066400001F0F5FADAF80830DAF8042003F580737F
:106650009B1AA5E7D8B2CEE7BDF80E30C3F3891375
:1066600003334FEA1B4B02EB93030293DFE7BDF8C2
:106670000C30C3F383134FEA1B4B1344F5E7A40517
:1066800044F0060098E700BFE0310020064B0748C1
:1066900010B500221A7001F054FD044610B90448E8
:1066A00001F00FFF204610BDE031002008C70200B6
:1066B000ECC7020030B50A4C71B10A4A0A49121BF4
:1066C000D20800239A4201D1002030BD31F8235076
:1066D000854202D00133F5E7034654F83300F4E76E
:1066E00070C6020008C70200282A0020094B0139A1
:1066F00003EBC000032909D8DFE801F00A02040611
:106700000420704700797047407970470020704737
:106710000220704770C6020070470000034BD3E9A7
:106720000130C31A58425841704700BFE031002081
:106730002DE9F04186B0FFF7F1FF0546002840F053
:10674000ED80774CC4F81804BFF34F8FA368029311
:10675000DBB2033304EB830002A9FFF7E5FE029BE3
:1067600018B1D4F81824002A5AD0DAB2991C01338F
:1067700004EB8202DBB204EB8303D268DB68049390
:1067800002F00303022B0392029154D1BDF80E30A4
:106790006448C3F38917502F3E4628BF502606F1A0
:1067A000080166F38F13C1F30901ADF80E3001F053
:1067B000E0FC0546002800F09C8001F009FD002364
:1067C000082203A9284601F015FD0299CB43DBB24C
:1067D0000133C9B20331B6EB830F4FEA830204EBF6
:1067E000810125D95FFA82F80823A6EB080628461E
:1067F00001F000FDF6B208F108034B4903F0FC0379
:106800003246284601F0F6FC029B033703EB97075C
:106810000297D4F81834002B43D1D4F8106453E015
:1068200062689A4294D8A260284606B0BDE8F0811A
:1068300008233246E5E7012B5BD1BDF80C3039481F
:10684000C3F38311062928BF062161F3891302319E
:1068500001F00F018900ADF80C3001F08AFC05460B
:10686000002846D001F0B4FC0023082203A92846E2
:1068700001F0C0FC0026BDF80C20C2F38312B30067
:10688000964203F10803C4D202994A1CC9B20331EB
:10689000029204EB81010422284601F0ABFC013690
:1068A000E9E7284601F098FCFFF738FF80F0010087
:1068B000C5B2B9E7F3685B7923B1336829461B6831
:1068C00030469847F3681E68002EF3D1284601F041
:1068D00083FC0DF107008DF8076000F085FFD4F808
:1068E00018340BB9029BA3609DF8070000F0A0FFCD
:1068F000DAE7D4F8104454B90C4B0D480D49C01ACE
:10690000C008000440F0020000F05EF8CCE7236805
:1069100020469B689847E3681C68ECE7002583E7FE
:10692000E031002008C70200EC31002070C60200F0
:1069300098C60200D4C702002DE9F34704460E466C
:10694000924601A9012218469946FFF70BFE1C4FFB
:1069500010B3019D4FF00008AA1CC84508EB0201C6
:1069600025D11848002101F03FF980F31000000400
:1069700040EA1440E4006B1C04F03804DBB2EDB2D2
:1069800044F0010407EB8303033544EA881444EA26
:106990008624D86047F825403B781BB1FFF7C8FE36
:1069A0000028FBD1FFF7B8FE02B0BDE8F087C9B2FE
:1069B00007EB81015AF82830CB6008F10108CCE7D9
:1069C000E0310020FC35002000231A46FFF7B4BF59
:1069D00007B50123019201AAFFF7AEFF03B05DF8EE
:1069E00004FB07B5CDE9002302236A46FFF7A4FFA5
:1069F00003B05DF804FB1FB5CDE90123069B0393AB
:106A000001AA0323FFF798FF05B05DF804FB7FB5EB
:106A1000CDE90123089B0393099B04930A9B0593EB
:106A200001AA0523FFF788FF07B05DF804FB7FB5D7
:106A3000CDE90023089B0293099B03930A9B0493CF
:106A40000B9B05936A460623FFF776FF07B05DF8B8
:106A500004FB000030B50F4CD4F81024034600208E
:106A6000114631B9D96808714AB9C4F810340A60BE
:106A700030BDC9680D79854206D00968F1E7D26852
:106A800014680C601360F3E701300A28E8D14FF076
:106A9000FF30EDE7E031002038B5084B0125D3F891
:106AA00010441D7004B938BDE3685D712368204649
:106AB0005B689847E3681C68F4E700BFE03100209A
:106AC00030B5C38885B004460D4633B1144A0092F0
:106AD0001449154A284601F028F9217A05291DD0C4
:106AE000637A4BB1A088FFF701FE104B104953F8B1
:106AF0002020284601F019F9227A0E4BA08853F87D
:106B0000222003920021FFF7D5FD039A0A4903468C
:106B1000284605B0BDE8304001F007B905B030BDEA
:106B200018C8020000C80200F8C702008CC80200A2
:106B30001DC80200B0C8020020C8020007B5034605
:106B40000846197A052911D05B7A2BB1094A0A49FE
:106B5000019001F0EAF801980849019001F0E5F888
:106B6000019803B05DF804EB01F0D4B8002AF8D026
:106B7000F2E700BF18C802001DC8020015C80200D5
:106B80002DE9F04385B01F460C9D002395F80C902D
:106B90002B7306460C46904629463846FFF790FF71
:106BA000B8F1060F09D8DFE808F00412181F2833DF
:106BB00040003146284601F0B8F800222946384600
:106BC000FFF7BCFF85F80C9005B0BDE8F0832268A4
:106BD0003146284601F0A9F8EFE7D4E90023314611
:106BE000284601F0A2F8E8E7A36800933146D4E90B
:106BF0000023284601F099F8DFE7E3680193A368D2
:106C000000933146D4E90023284601F08EF8D4E7FA
:106C100023690293E3680193A36800933146D4E9A2
:106C20000023284601F081F8C7E7636903932369CD
:106C30000293E3680193A36800933146D4E90023EB
:106C4000284601F072F8B8E708292DE9F74F804689
:106C50000E4617461C463DD800251B7B2573214652
:106C600010460193FFF72CFFDFF88CA0DFF88CB003
:106C7000AE4232D918F805205946204601F055F8A1
:106C80000135082DF4D11B49DFF874A0DFF874B08A
:106C9000204601F04AF84FF000094E4524D918F873
:106CA00009507E2D1ED8284605F0A6FB002814BFEB
:106CB0002A462E225946204601F037F809F10109EB
:106CC000B9F1080FE9D1012221463846FFF736FF16
:106CD000019B237303B0BDE8F08F5146204601F0BD
:106CE00024F8CDE72E22E5E75146204601F01DF8B5
:106CF000E4E700BF34C8020030C802002AC802001E
:106D000032C8020036C80200C30710B507D4F0230A
:106D1000054A4008145C23401943115410BD090171
:106D2000C9B20F23F4E700BFA836002030B5094BE5
:106D30001C78094B196800239C4202DC0022104693
:106D400030BD11F83350854201EBC302F7D0013357
:106D5000F2E700BF98360020B836002013B504468D
:106D60000191FFF7E3FF38B143682BB10199204649
:106D700002B0BDE81040184702B010BD034B0448F4
:106D800019680022490800F0E5BA00BF9C360020CF
:106D9000302A002010B5C0B2FFF7C8FF04460078C3
:106DA00002F0B4F863785A1E53425341834208D12B
:106DB000044BD3E90023134303D1BDE81040FFF790
:106DC000DDBF10BDA036002037B54308374AD35C7D
:106DD000C2074CBF1B0903F00F0304460D46042BEA
:106DE00025D8DFE803F003262F3C4000F9B101214C
:106DF000FFF78AFF00230DF107008DF8073000F040
:106E0000F3FC0120A4F12003C4F12001284A20FA58
:106E100001F100FA03F30B43A040D2E90041204303
:106E20000B43C2E900039DF8070000F001FD03B029
:106E300030BD002918BF0221204603B0BDE8304014
:106E4000FFF762BF49B10321FFF75EFF0121204632
:106E500003B0BDE83040FFF781BF0121ECE7002916
:106E6000E5D10421E8E709B10321E5E7FFF74CFF8D
:106E700029462046FFF772FF0DF107008DF80750F5
:106E800000F0B2FC0120A4F12003C4F12001084A63
:106E900020FA01F100FA03F30B43A040D2E90041CC
:106EA00024EA000021EA0303BBE700BFA836002064
:106EB000A03600202DE9F041124E134F0024337804
:106EC000A34208DC114BD3E90023134318D0BDE8DB
:106ED000F041FFF753BF3D6805EBC40815F83400D7
:106EE00002F014F898F801305A1E53425341181A10
:106EF0004142414115F83400FFF766FF0134DEE7F7
:106F0000BDE8F08198360020B8360020A036002079
:106F1000092AF7B505460C4616463ED901F02EFF64
:106F2000E8B11F4B1F481D601F4B204F1C70204BAA
:106F3000002110221E6005F0E4FA1E4B0020002103
:106F4000C3E90001013CE4B20326FF2C0DD11A4A2B
:106F50001A48002103B0BDE8F04000F0E9B901F0A3
:106F6000D5FE0028DDD003B0F0BD9DF8063015F841
:106F700034008DF8046005EBC40223F007038DF89C
:106F8000063001A993788DF805303A4601F000FFEC
:106F9000013CE4B20028D8D0E5E70720E3E700BFD2
:106FA000B8360020A836002098360020956D0200E3
:106FB0009C360020A0360020B56E0200D0C802002A
:106FC00070B5084D084E00242B789C4201D3002058
:106FD00070BD3368012113F8340001F051FF013412
:106FE000F2E700BF98360020B836002082B00123B7
:106FF0008DF807309DF80730114B1860596044F246
:10700000010188429A6012D044F20201884206D1FE
:10701000DA60DA6812689A61DA685268DA6172B620
:107020009DF80730002BFBD162B602B070471A61A1
:107030001A6992685A611A6912689A611A69ECE7CA
:10704000BC36002000B583B002900091019244F25A
:10705000010071466A4600F003F803B000BD00006D
:10706000F0B5064687B00F46154672B6FFF714FD19
:10707000FFF75EFB0028FBD1244B254CE41AE40803
:1070800044F2010324049E4244F001042BD00BD8A7
:10709000012E14D041F201039E4222D01D493A46EE
:1070A0002046FFF795FC0EE044F202039E42F5D124
:1070B000D5E9003218492046FFF793FC03E0174951
:1070C0002046FFF781FC164BD3F8F030DB0700D5E4
:1070D00000BE2A463946304607B0BDE8F040FFF70B
:1070E00085BF1049ECE7AA680592104601F04CFAFA
:1070F0002968029701916968009103460A49059A37
:107100002046FFF784FC0949DAE700BF70C6020099
:1071100098C6020067C9020013C90200D4C8020061
:1071200000ED00E0F1C802002DC9020053C90200C1
:1071300049B152B1531E1A4007D182600160838069
:10714000C260104670470E2070470920704710B586
:107150008468C2688388121B934208D3C2681340B4
:107160000268D154C3680133C360002010BD0420FD
:10717000FCE78268C3689A420AD082688388134019
:107180000268D35C0B708368013383600020704712
:107190000520704710B5D0E90243D1E90202A042B0
:1071A00072EB03032CBF0120002010BD08B50A4874
:1071B00000F071FC094AD2E90031C018084BD3E94C
:1071C000002341F10001904271EB030303D210F15F
:1071D000807041F1000108BD502A0020E0360020F7
:1071E0005837002037B505460C460A4801A900F07B
:1071F00086FC60B10570446001A9064800F0A9FC56
:1072000018B1054800F04CFC002003B030BD04204C
:10721000FBE700BF44370020502A0020294B73B5FC
:107220001E7804461EB90026304602B070BD002804
:10723000F9D0FFF7BBFFD4E902239042994139D33B
:1072400000230DF107008DF8073000F0CDFA236917
:107250002BB94FF0FF324FF0FF33C4E902239DF802
:10726000070000F0E5FAD4E90530984700250DF154
:1072700007008DF8075000F0B7FA2369C3B1D4E9CD
:107280000212B2F1FF3F08BFB1F1FF3F05D05B181A
:1072900042F10002C4E9023235469DF8070000F0D1
:1072A000C7FA002DBFD00848214601F029F9BBE7F5
:1072B0001D46F2E7B3F1FF3F08BFB2F1FF3FB2D086
:1072C000F1E700BFE836002090C9020013B5114B6A
:1072D00011491868019008231048582200F0FCFB5F
:1072E000044698B90E4A0F4801A900F0C5FA0446B1
:1072F00060B90C48012100F0B1FB01230A4A09489A
:10730000194600F013FB094B01221A70204602B007
:1073100010BD00BF8AC90200EC36002044370020AF
:107320000D740200502A0020FFFF7F00E836002085
:1073300030B56AB103684FF0FF344FF0FF355A6142
:107340004A1E5142C3E9024551411961002030BD36
:107350000720FCE7F7B5044600250DF107001746A6
:107360000E468DF8075000F03FFAD4E90223B3F13E
:10737000FF3F08BFB2F1FF3F07D1FFF717FF3018FB
:1073800041F10001C4E9020101259DF8070000F068
:107390004FFA55B12369A76103B126612146002048
:1073A00003B0BDE8F040FFF71DBF284603B0F0BDB5
:1073B00037B5054600240DF107008DF8074000F0B1
:1073C00013FAD5E90223B3F1FF3F08BFB2F1FF3F43
:1073D0001FBF4FF0FF324FF0FF33C5E902230124F6
:1073E0009DF8070000F024FA34B12946012003B0CB
:1073F000BDE83040FFF7F6BE204603B030BD0000C8
:10740000014800F048BB00BF502A00202DE9F74397
:10741000064600F02BFB40B1624AD2E9003113F17D
:10742000807341F10001C2E900310021304600F0D3
:107430002CFB38B15C4C236823B12068FFF7EEFECB
:10744000002323600121304600F01FFB20B1FFF72D
:10745000ADFE564BC3E900015548534C01A900F05D
:1074600088FB4FF0FF384FF0FF39A0B9DFF84481B7
:107470004D4D404601F05AF8002800F08580D0E9D3
:107480000223B3F1FF3F08BFB2F1FF3F32D14046C4
:1074900001F046F8EDE70378012B20D0022B08D14C
:1074A000444D284601F03CF8002877D0C0E9028915
:1074B000F7E75BB94168D1E90223B3F1FF3F08BFA9
:1074C000B2F1FF3F02D03B4801F01AF801A9384859
:1074D00000F07AFB01A9364800F04BFBC5E7416894
:1074E0002368994202D100232360EFE7314801F07D
:1074F00020F8EBE7296891B12968D1E902018242BD
:107500008B412FD22B68D3E90223B3F1FF3F08BF91
:10751000B2F1FF3F03D02968404600F0F1FF40463A
:1075200000F0FEFFD0E902490746FFF73FFE201AB0
:1075300069EB0109012879F1000318DBB0F5350F7B
:1075400013D3FFF75DFF1C4A02441C484FF4960317
:10755000002100F00BFA90B92B6813B9304600F007
:10756000DDF92F6003B0BDE8F0832246EDE7134854
:10757000002100F080FA3846FFF750FE01E00D28A8
:10758000F9D000232B6074E7074B1B68002BE9D16F
:10759000304603B0BDE8F04300F0C4B9084B012207
:1075A0001A7093E7E036002060370020583700203B
:1075B0004437002090C90200FFFFB400502A002089
:1075C000E83600200648074A03780749D35C0122C1
:1075D00013B1043002F0AAB90C3001F06DBF00BF46
:1075E000582A0020D43700208C3700200648074A4C
:1075F00003780749D35C012213B1043002F048B983
:107600000C3001F009BF00BF582A0020D4370020F9
:107610008D37002037B50578012D0DD0022D30D0E3
:1076200075B91F491F48FFF7A4FD002834D103B0E6
:10763000BDE83040FFF7DABF037A1BB9FFF7C2FF9E
:1076400003B030BD4368184C19782046FFF77FFD22
:1076500080B18DF800500190144B68461B68984724
:10766000A168E368A2885B1A9A42E7D2104B012214
:107670001A70E5E7A268E3689A42F1D08DF800003D
:10768000EAE7C3688DF800500193FFF79BFF074BB3
:1076900068461B689847D3E703238DF80030F6E768
:1076A0008D3700207C3700206837002064370020A9
:1076B00078370020F0B51F46234B89B004461A6086
:1076C0000D4600293DD08A8820480968FFF730FD23
:1076D000002834D1AA89A9681D48FFF729FD002890
:1076E0002DD11C4E0FCE6D460FC596E80F0085E8D4
:1076F0000F0063690693237C174A18488DF81C70A5
:10770000003B18BF01238DF81430637C002B14BF9D
:107710000E2300238DF81530E3680293A3680393CA
:107720002368019369466368009301F025FA30B934
:107730000B4B18702368013301D0FFF743FF09B0EA
:10774000F0BD0720FBE700BF64370020683700204A
:107750007C370020F8C9020015760200582A002064
:107760007837002070B5094D014609482E78FFF79B
:1077700000FD044646B100232B70FFF723FF18B12C
:10778000044AD621FFF75EFC204670BD7837002002
:10779000683700209CC9020010B501460E48FFF76B
:1077A000D6FC0446A8B90D480D4A0378D35C63B1F2
:1077B000043002F061F860B90A490748FFF7D9FCC4
:1077C00038B9BDE81040FFF711BF0C3001F018FECA
:1077D000F1E7204610BD00BF7C370020582A00206A
:1077E000D43700208D37002070B5EFF3108672B6C5
:1077F0000C4A946801239CB993600B4B0B4DD3F852
:10780000801029401160C3F88050D3F88410516073
:107810004FF0FF32C3F88420047006B962B670BD21
:107820000370FAE79037002000E100E0FC06FFBD9E
:10783000084B9A6810B55AB150B9EFF3108172B67F
:10784000054A1C6814605C685460986001B962B6AF
:1078500010BD00BF9037002000E100E0435882B027
:107860003BB10023435043580193019B012002B0D8
:1078700070471846FBE70000F8B5204B4479204ECE
:1078800043F824201F4A204B06EBC4049B1A22799C
:10789000DB081B0432B143F002001C49FFF794F8E7
:1078A0000820F8BD02680C88C2F8084590F9045019
:1078B0008A7804795201002DD2B219DB14494F198C
:1078C00087F8002301226D0904F01F0402FA04F472
:1078D00041F82540427906EBC201012446F8320006
:1078E0000C7143F003000B49FFF76EF80020D8E756
:1078F000094904F00F040A55ECE700BFA437002043
:107900009C37002070C60200A8C6020018CA0200F8
:1079100000E100E03ACA020014ED00E00368012231
:107920001A607047036801225A60704773B501F10D
:107930005005AD000068ADB24FF480348C40002695
:10794000C0F80843C0F84843465101F5A8714559AD
:10795000019522F07F42019D40F82120C0F8444368
:107960000BB1C0F8044302B070BD00002DE9F74F21
:107970000D4622F07F4402684FF4803705F150062F
:107980008F408046B60002EB8500C2F84873B6B25D
:10799000C2F80873D2F8041599464FF0000BD0F8DE
:1079A0004035C0F8401542F806B05B1A9259009273
:1079B00023F07F43012B009A4FEA850A0CD1264B16
:1079C0004FF4806043F001039847D8F8003043F843
:1079D00006B09B590193019BD8F80010D1F80465BB
:1079E000C1F84473A31B23F07F43012B1CD11A4B16
:1079F00005F5A875013443F0010341F825404FF423
:107A000080609847D8F80030D3F804359E4209D1F9
:107A1000D8F800300020C3F84473C3F8047303B0EF
:107A2000BDE8F08F0D20FAE78A44C9F1FF13CAF8C8
:107A30004045D1F80405221A013A22F07F4203F5AD
:107A40007F439342EED3002AE2D10134CAF8404585
:107A5000D1F804359842DAE750CA020003680222DE
:107A6000C3F8442309B1C3F80423704700684FF4F6
:107A70008271FFF7F3BE4FF4803303FA01F103681C
:107A8000C3F84813C3F808137047503189000068E1
:107A900089B2FFF7E3BE0368D3F80405704700001E
:107AA00090F90430002B09DB5A09012103F01F0370
:107AB00001FA03F34032024941F82230704700BF17
:107AC00000E100E0024B034A1B681068184700BF42
:107AD000A43700209C37002010B561B1B2FBF3F44D
:107AE00003FB1424A4B244B9C0E900148460828169
:107AF000C381204610BD0E20FCE70920FAE737B508
:107B000050E8013F9DB2C48925448489A54228BF1D
:107B10002D1B0489A54202BFBFF32F8F002207E06F
:107B2000C5EA030540E80154002CE9D14FF00102F9
:107B30008DF803200193019A0A609DF8031001F06B
:107B4000FF0321B1006810FA82F003B030BD18467F
:107B5000FBE70A884B889A4209D150E8012FC2EA14
:107B6000024240E80123002BF7D10120704700209A
:107B7000704737B550E8023F1FFAA3F5C488A54205
:107B800002BFBFF32F8F00220DE0C48925448489F2
:107B9000A54228BF2D1BC3EA054540E80254002C2E
:107BA000E8D14FF001028DF803200193019A0A6099
:107BB0009DF8031001F0FF0321B1006800EB1240B3
:107BC00003B030BD1846FBE70A884B889A4209D1BA
:107BD00050E8022FC2EA224240E80223002BF7D1EC
:107BE000012070470020704710B5034653E8000F8E
:107BF0000A4643E8002494F0000FF7D110BD10B5F9
:107C0000034653E8002F42EA010043E8000494F0E1
:107C1000000FF6D110BD10B5034653E8000F00EA7F
:107C2000010243E8002494F0000FF6D110BD10B516
:107C3000034653E8002F02EB010043E8000494F0F0
:107C4000000FF6D110BD10B5034653E8002FA2EB8C
:107C5000010043E8000494F0000FF6D110BD0121AB
:107C6000FFF7CDBF0021FFF7D6BF10B590B1D0E927
:107C7000012301689B1ADBB20A60013BDBB2FF2BD8
:107C8000026802D10020107110BD11684C1C1460F4
:107C90000B70F2E70E20F7E737B5054600240DF12B
:107CA00007008DF80740FFF79FFD2A686B68116891
:107CB00099420ED9481E106011F8013CEC68298ADF
:107CC00001FB0344AB6811791B1ADBB2994238BF40
:107CD00013719DF80700FFF7ABFD204603B030BDE0
:107CE00037B5054600230DF107000C468DF8073027
:107CF000FFF77AFD2A681368591C1160E968641A55
:107D0000298AB4FBF1F41C709DF80700FFF790FD81
:107D100003B030BD826810B504462AB143690168DA
:107D2000006998470023A36010BD0EB403B5039902
:107D300021B104AB01AA019300F076F802B05DF81E
:107D400004EB03B070470A2938B504460D4602D14A
:107D50000D21FFF7F8FFA3682268591CA160D554D4
:107D6000D4E901329A4204D32046BDE83840FFF7F7
:107D7000D1BF38BD2DE9F84F9846DDE90A431546D5
:107D800082460F460A464FF00109AA420FD2C1456A
:107D900038BFC14613F0010B01D16CB90024012694
:107DA000B8F1010F1BD908F1FF386E43F8E709F16C
:107DB0000109B2FBF5F2E8E79B070ED5B8F1000F19
:107DC0000CBF30262026A145E9D2013C3146504661
:107DD000FFF7B9FF002CF6D1E0E72026F3E7B7FB69
:107DE000F6F39D42E1D9DFF83C80B7FBF6F350464D
:107DF00018F8031006FB1377FFF7A5FF3346AB42D5
:107E0000B6FBF5F6F1D2BBF1000F02D00CB1A145E3
:107E100001D3BDE8F88F20215046013CFFF793FFC6
:107E2000F4E700BF56CA02002DE9F74F0546174692
:107E30008846002900F03E8118F8011B49B92B7BC8
:107E4000002B00F03781284603B0BDE8F04FFFF764
:107E500061BF252940F0B780002698F800302D2B0F
:107E6000424608F1010823D0302B24D02B2B25D0FB
:107E700000242A2B02F1010123D13B681A1D1B6843
:107E80003A601C440A4613782E2B26D101324FF05B
:107E9000000A104610F8011BA1F1300CBCF1090FCB
:107EA0001DD80A2303FB0A13A3F1300A0246F0E7A8
:107EB00046F00106D1E746F00206CEE746F004069A
:107EC000CBE711F8013CA3F130000928DBD80A22E6
:107ED00002FB0434303C0A46CBE74FF0000A12F8AC
:107EE000011B01F0FB0068289046F8D0782909D8DA
:107EF0006F290CD8632962D022D8252963D058294C
:107F000000F0888098F80030002B95D197E7703901
:107F10000829F7D801A353F821F000BF8F80020091
:107F2000057F0200057F020025800200057F020018
:107F300003800200057F0200057F02001580020019
:107F4000642901D06929DDD13A68D2F80090111D69
:107F500089EAE9723960A2EBE9724FF0010B092A54
:107F600035DCD34538BFD3462CB1B9F1000F01DB66
:107F7000720700D5013CB30702D5BAF1000F03D058
:107F8000F00701D44CBB0024B9F1000F2DDAC9F180
:107F900000092D212846FFF7D6FE06F00302022A2B
:107FA00004D1BAF1000F01D11CBB0024CDE9004679
:107FB00053460A2249462846FFF7DCFEA2E73B6803
:107FC0001A1D19783A602846FFF7BDFE9AE70A2382
:107FD0000BF1010BB2FBF3F2C1E7A345D4D2202190
:107FE0002846013CFFF7AFFECCE77107D5D52B2122
:107FF000D0E7A345DAD230212846013CFFF7A3FEA3
:10800000D2E73968CDE900460A1D3A6053460A2294
:108010000968D0E739680A1D3A60CDE90046534641
:108020001022F5E73B681A1D3A6016F00106D3F8F6
:10803000009024D1B9F1000F03D0484604F0DDFAD6
:108040000646B4421DD809F1FF3919F8011F00296D
:108050003FF458AF2846FFF776FEF6E7284601368C
:10806000FFF771FE19F806100029F7D1A642BFF4F8
:1080700049AF20212846013CFFF765FEF6E70026C0
:10808000F0E720212846013CFFF75DFED9E73B6879
:108090001A1D3A60302128461C68FFF754FE7821EB
:1080A0002846FFF750FE00220823CDE90032214682
:1080B000102280E703B0BDE8F08F00BF2DE9F84F34
:1080C000B0F806A04579D2F800B09DF828900AFBD8
:1080D00005F5043D88460BEB0301A94203F10404B6
:1080E00088BFA5EB030BB4FBFAF607460AFB164460
:1080F000C2F800B04EB9AAEB04055D4528BF5D4645
:10810000BBF1000F04D1BDE8F88F3F68013EF1E7F5
:10811000043408EB06003C442A46B9F1000F0DD0A8
:108120002146ABEB050B04F0C3F9DA452E443F685A
:1081300055464FF0000428BF5D46E1E70146204662
:10814000EFE7FFF792BDF8B546790146721E054686
:10815000002393422D6803D30024A64202D8F8BD21
:108160000133F6E70F682846FFF7BAFD01343946B8
:10817000F3E72DE9F843068ACD1C0746FFF78CFD8F
:10818000043E35440446B5FBF6F5F0B14FF4807378
:10819000EDB28380C680013D076081464FF0000844
:1081A000A84512D23846FFF777FD064648B16379F5
:1081B0000133637108F10108C9F8000007608146C6
:1081C000EEE72046FFF7BFFF34462046BDE8F883C0
:1081D00001210430FFF72BBD10B501210446043006
:1081E000FFF731FDC0B220B92046BDE81040FFF7CF
:1081F000AABF10BD1FB503920022009203AAFFF789
:108200005DFF05B05DF804FB1FB5039201220092EB
:1082100003AAFFF753FF05B05DF804FB33DF704797
:1082200041DF7047064B10B500241C70054B1C60E5
:10823000BFF35F8F0449054800F04CF9204610BD9C
:10824000B1370020B437002070CA0200A8370020E0
:1082500007B500230DF107008DF80730FFF7C4FACA
:10826000F1EE103A23F09F03E1EE103ABFF35F8F77
:108270000A4B4022C3F884219DF80700FFF7D8FA83
:1082800003F078FE20B103B05DF804EBFFF7C8BF40
:1082900020BF40BF20BF03B05DF804FB00E100E059
:1082A00070B5254D044601212846FFF79DFCBFF31C
:1082B0005F8F38B9042C0AD0204B1A781AB1BFF35B
:1082C0005F8F286070BD1E4A147001221A701D4C09
:1082D0001B4E6368BBB9FEF7DFFBFEF729FA0028E7
:1082E000FBD1174B1B78023B012B15D8BFF34F8FE7
:1082F0001549164BCA6802F4E0621343CB60BFF322
:108300004F8F00BFFDE71B68307898470028D6D014
:10831000204600F0E9F8DCE703F02CFE18B1FFF787
:108320007DFF20BFFDE74FF080430122C3F8002509
:10833000BFF34F8F20BFFDE7B4370020B1370020D7
:10834000B0370020A837002000ED00E00400FA0557
:10835000026813685268934291BFD01A8068013056
:10836000801888BFC01A7047036881681A685B6804
:108370008B4234BF01330023D31A5842584170470F
:1083800073B5002304460DF107000D468DF8073044
:10839000FFF72AFA2046FFF7E7FF10B1237C002BF6
:1083A0003BD12368A1685E685A688A4234BF0132B3
:1083B00000225A6028B11A688A4234BF0132002272
:1083C0001A60E2686368511E072920D8DFE801F0CF
:1083D00004101F141F1F1F182A789A552046FFF7F4
:1083E000B7FF23689A68824200D29860002415E0A3
:1083F0002A8823F81620F1E72A6843F82620EDE7BB
:10840000D5E9000103EBC603C3E90001E6E729460D
:1084100002FB063004F04CF8E0E704249DF8070066
:10842000FFF706FA204602B070BD036818685B6863
:10843000C31A58425841704773B5002305460DF1E1
:1084400007000C4616468DF80730FFF7CDF9284691
:10845000FFF7EBFF002832D12B6819682EB91A6894
:10846000A868824238BF561C1E60EA686B68501EBE
:1084700007281ED8DFE800F0040E1D121D1D1D1672
:108480005B5C237000249DF80700FFF7D1F92046BC
:1084900002B070BD33F811302380F3E753F8213078
:1084A0002360EFE703EBC103D3E90023C4E9002312
:1084B000E8E701FB0231204603F0FAFFE2E705247A
:1084C000E1E7836800225A60C3E904229A60DA6017
:1084D0001A6070470B684A684360934208BF0023E4
:1084E000016008BF43607047436843B10268916808
:1084F00052680B449342436004BF002343607047BB
:1085000070B5446806460D46206818B1B368294620
:10851000984718B923682B60256070BD2468F3E77D
:108520004368186808B102681A60704743681868A1
:1085300070474368186800B97047884203D10268E1
:108540001A600120704703460068F4E710B50D4932
:10855000A1F59472914201D800200FE08C1AE30F2C
:1085600003EBE4035B1002EBC30452F833308342A5
:1085700005D802D204F10802ECE7606810BD21467C
:10858000E8E700BF7CCF020008B5FFF7DFFF024B32
:10859000002808BF184608BD3FCE020010B50446AB
:1085A000C0B2FFF7F9F8204610BD4FF08053D3F862
:1085B0003001421C04BF4FF0704393F8E00F831F5B
:1085C00058425841704700004FF0704393F8E02F35
:1085D000062A09D1D3F8E83FC3F30313033B042B66
:1085E00002D8024AD05C7047002070478BCF02004F
:1085F000024AD2F80034002BFBD0704700E0014063
:1086000010B5FFF7D2FF40B14FF08053944AD3F832
:108610002433C3F30423C2F84035FFF7D5FF10B16C
:10862000904B914A5A67FFF7C0FF48B14FF0805313
:108630004FF08042D3F84432C3F34233C2F83C35A2
:10864000FFF7C2FF30B1894AD2F8FC3023F08073C3
:10865000C2F8FC30FFF7A9FF40B14FF08043002281
:10866000C3F80C21C3F81021C3F83825FFF7ACFF7D
:1086700020B14FF080430322C3F8A025FFF7A4FFE9
:1086800060B17B4B0522C3F810260122C3F888266F
:108690000022C3F818263F22C3F814264FF0805357
:1086A000D3F83021511C09BF4FF07043D3F8343157
:1086B00093F8E02FD3F8E83F08BFC3F30313062A6B
:1086C0004DD1033B042B03D86A4AD35C002B46D020
:1086D0004FF08052684BD2F80414C3F82015D2F83A
:1086E0000814C3F82415D2F80C14C3F82815D2F8CE
:1086F0001014C3F82C15D2F81414C3F83015D2F89E
:108700001814C3F83415D2F81C14C3F84015D2F865
:108710002014C3F84415D2F82414C3F84815D2F82D
:108720002814C3F84C15D2F82C14C3F85015D2F8FD
:108730003014C3F85415D2F83414C3F86015D2F8C5
:108740003814C3F86415D2F83C14C3F86815D2F88D
:108750004014C3F86C15D2F84424C3F87025FFF711
:1087600024FF48B14FF080534FF08042D3F8583285
:1087700003F04F03C2F8E43EFFF717FF48B14FF094
:108780008043D3F80024D20744BF6FF00102C3F83E
:1087900000244FF08053D3F83021062A0ED1D3F8AD
:1087A0003431033B042B02D8344AD35C33B1344A0E
:1087B000D2F83C3743F48063C2F83C372B4AD2F8F6
:1087C000883043F47003C2F88830BFF34F8FBFF393
:1087D0006F8F4FF08053D3F83021062A0FD1D3F892
:1087E0003431033B042B02D8264AD35C3BB14FF013
:1087F0001023D3F808224FF08043C3F858254FF0D8
:108800001023D3F80022002A03DBD3F80432002B14
:1088100022DA1D4901234FF01020C1F80435152438
:10882000FFF7E6FEC0F80042FFF7E2FEC0F80442A0
:10883000FFF7DEFE0023C1F80435FFF7D9FEBFF3D2
:108840004F8F0A49114BCA6802F4E0621343CB60B0
:10885000BFF34F8F00BFFDE70D4B0E4A1A6010BDEE
:108860000030014000C007400DF0ADBA00ED00E05F
:10887000005000407CCF020000C0004081CF0200C9
:108880000010004086CF020000E001400400FA051D
:108890006C2A00200090D003054A4FF0A043105CE2
:1088A000D3F8043523FA00F0C04300F0010070470C
:1088B00094CF0200044B1A5C012393404FF0A04276
:1088C000C2F80C35704700BF94CF0200044B1A5C0D
:1088D000012393404FF0A042C2F80835704700BF13
:1088E00094CF020008B50020FFF7F0FF0120FFF74A
:1088F000EDFF0220FFF7EAFFBDE808400320FFF785
:10890000E5BF08B50020FFF7D5FF0120FFF7D2FF34
:108910000220FFF7CFFFBDE808400320FFF7CABFE2
:10892000074A4FF0A041105CD1F804350122824083
:1089300022EA03001340C1F80805C1F80C3570475E
:1089400094CF0200054A4FF0A043105CD3F81035D5
:1089500023FA00F0C04300F00100704790CF0200FE
:108960000D2809D00E2809D00F2809D010280CBFD7
:1089700003204FF0FF307047002070470120704700
:1089800002207047014B185C704700BF90CF020077
:10899000C20708B501460CD54FF0A0430322C3F827
:1089A0004427C3F84827C3F84C27C3F85027FFF7DC
:1089B00099FF8B070AD54FF0A0430C22C3F8342748
:1089C000C3F83827C3F83C27C3F8402708BD000088
:1089D00038B5074C051E04F1080318BF1C46236870
:1089E0002BB11A6822605B6828469847F7E738BDC4
:1089F000C037002020B9054B01225A70FFF7E8BFAD
:108A0000012802D1014A9070F8E77047B83700207A
:108A100020B9034B01225A70FFF7DABF704700BF3D
:108A2000B837002038B50E4C2378B3B90D486360D1
:108A3000A3602361E36000F0E7F8054603F09AFACB
:108A400008B900F0EDF801232370074BD3F8003488
:108A50000BB10123A370284638BD8525F5E700BF7B
:108A6000B8370020F58902000000014037B50D4CF1
:108A700000230DF107008DF80730FEF7B5FEE3681F
:108A8000013BE360E36833B9074BD3F8005415B9F1
:108A900000F0D8F8A5709DF80700FEF7C9FE03B0F6
:108AA00030BD00BFB837002000000140012813B5D9
:108AB0000CD0032820D038B9134B0122C3F88020F2
:108AC000BFF34F8FBFF36F8F02B010BD0F4C002369
:108AD0000DF107008DF80730FEF786FE23780BB9FD
:108AE000FFF7A0FFE3689DF807000133E36001236F
:108AF000A370FEF79DFEE7E700F092F802B0BDE834
:108B00001040FFF7B3BF00BF00E100E0B83700201E
:108B10001FB503788DF800304368019383688DF8A2
:108B20000830C368054A0393054B684653F8213063
:108B300052F82110984705B05DF804FBCC370020AF
:108B4000D03700201FB503788DF8003043680193BB
:108B500083688DF80830C368054A0393054B68465F
:108B600053F8213052F82110984705B05DF804FB06
:108B7000CC370020D0370020F0B5194B90F800C05A
:108B800091F81DE043F82C20164B16460A6943F86D
:108B90002C20154B03F80CE00C4607460FCC89B08F
:108BA0006D460FC594E80F0085E80F00CDF810C0A2
:108BB000BEF1000F09D0002E0C4A694608BF3246AC
:108BC000381D00F097FD09B0F0BD002E084A694637
:108BD00008BF324607F10C0000F05EFBF3E700BF70
:108BE000D0370020CC370020D4370020118B020072
:108BF000458B020000F18040002382B003600368CF
:108C00000193019B02B07047044A137923B90121F3
:108C1000106091801846704785207047D837002033
:108C2000074B1A68D20704D4C02283F8002301221C
:108C30001A604FF080430122C3F81825704700BF27
:108C400000E100E04FF0804208B50223C2F808338B
:108C50004FF48270FFF7CEFF0123D360D2F81834AF
:108C6000DB03FBD408BD00004FF0804110B5D1F804
:108C7000003163B14FF48070FFF7BCFF0D4B5879A2
:108C80000122C1F8082310B95A711B6898474FF0A8
:108C90008042D2F8043163B14FF48270FFF7AAFF2B
:108CA0000223C2F80833034BBDE810401B680120C3
:108CB000184710BDD837002000F1804000F5C040B3
:108CC000002382B0036003680193019B02B07047E8
:108CD000800000F1A040D0F8002722F44032C0F814
:108CE0000027D0F8003743EA0141C0F80017704769
:108CF000054B4FF0FF32072843F8202084BFC018EF
:108D000080F84820704700BFE037002010B51849B0
:108D100091F8583053BB4FF0FF3222FA03F0C007EE
:108D200048BFC81803F1010348BF80F83020202B4A
:108D3000F3D10024E0B20134FFF7DAFF0C2CF9D1B3
:108D40000C4B0022C0204A6583F8060340201860BF
:108D50004FF4BE70FFF7B0FF074B4FF00040C3F871
:108D60000403012381F85830104610BD0820FCE7A9
:108D7000E037002000E100E000600040034B93F882
:108D80005800003818BF0120704700BFE0370020AE
:108D9000F0B5394E331893F93030002B69DA8D78FD
:108DA000C5F34005002D0BBF082300230C24082425
:108DB000A34201D10420F0BD56F82370013743D1FE
:108DC00037185CB246F8232087F8304015B9F218FE
:108DD00082F848008A78550716D4D70736D582001E
:108DE00002F1A042D2F8005725F00205C2F8005760
:108DF000224FC50800F0070C012202FA0CF217F806
:108E000005C042EA0C027A558A780D7812F0020207
:108E100025D09B0003F1804303F5C0430002D3F843
:108E2000102522F4473222F44072C3F810252D0495
:108E3000D3F8102500F4F85005F4403528431043CA
:108E4000C3F810050020B6E70133B1E74D7800F50F
:108E5000E0724FF0A047AD0047F82250C8E7083C49
:108E600046FA84F494F8500040EA851584F850508E
:108E7000E8E708209FE700BFE037002034380020F3
:108E800038B5204C251895F93020072A18DD083A06
:108E900044FA82F494F850309B09032B0BD14FF025
:108EA000A043D3F81015C14001F001010231BDE823
:108EB0003840FFF70DBF012B0CBF02210321F6E75D
:108EC000D3B2072B1DD8930003F1804303F5C043B1
:108ED000D3F8100540F00100C3F8100502F140007E
:108EE00040B2800080B2FFF7E7FE51B195F9303013
:108EF00054F823302BB1012303FA02F2024BC3F8DA
:108F0000042338BDE0370020006000404FF0A0434C
:108F1000D3F8103523FA00F000F00100704700008C
:108F20002DE9F74F00244E4D01944FF4807201213A
:108F300002F1804303F5C04390B21B68012B06D1B8
:108F4000D5F804330B4202D0FFF7B6FE0C430432CF
:108F5000B2F5907F4FEA4101EAD1414BD3F87C3121
:108F6000012B0CD14FF4BE70FFF7A6FE4FF0A043CB
:108F700044F00044D3F820250192C3F82025E3B241
:108F8000D3B1384F00250126344210D0AB0003F195
:108F9000804303F5C043D3F81005D3F8101557F8F4
:108FA000253023B1C1F30141C0F3042098470135B6
:108FB000082D4FEA4606E7D1002C48DA294D4FF03C
:108FC000A048294E4FF00009012716F9013B5A1C11
:108FD00031D0C3F3C20208326A44DCB212F8042C66
:108FE00003F03F0A03F0070307FA03F31A4222D003
:108FF0000AF5E073504658F82330C3F3014BBBF138
:10900000020F0CBF03210221FFF762FE07FA0AF3E9
:10901000C8F8203505EB0A0393F9303055F82330B2
:109020004BB1A109032904D0BBF1020F12D10129D0
:1090300001D15046984709F10109B9F1040FC4D193
:10904000D8F820350193C8F82035002BB9D103B0EA
:10905000BDE8F08FBBF1030FEDD10229E8E700BFB7
:1090600000600040E037002030380020014B1B68D2
:10907000184700BF3C3800200E4B984237B50C46CD
:1090800002D0002003B030BD00230DF107008DF8A1
:109090000730FEF7A9FB084B1D7915B901221C60AA
:1090A0001A719DF80700FEF7C3FB002DE9D01120CF
:1090B000E8E700BF002000403C3800200023435078
:1090C00082B043580193019B02B070470A4610B525
:1090D0004FF48E71FFF7F2FF136A9168C95C136A4F
:1090E00001331362C0F81C1510BD024608B50068B4
:1090F0004FF49271FFF7E2FF10684FF48471FFF7AD
:10910000DDFF136801221A6008BD8B690A4610B59D
:109110004FF4847123B9FFF7D1FFD0F8183510BD93
:10912000FFF7CCFF536AD168D0F81805C854536ACA
:1091300001335362F3E700001FB501238DF80030BF
:10914000044BCDE90110D3E900126846904705B001
:109150005DF804FB4438002030B54D4DD5F804339C
:109160009A0585B051D5D5F82431002B4DD04FF458
:1091700092712846FFF7A2FF4FF40173C5F8083338
:10918000444B93F829200AB901226A60404902221F
:109190008DF80020D1F88024C1F8802403929A69C8
:1091A0000292DA6801920022C3E906226846D3E9F6
:1091B000001290473648D0F81C315BB1354A5169EE
:1091C000136A99424DD992F82830002B49D11146A3
:1091D000FFF77CFF2E48D0F84431002B56D04FF4D7
:1091E000A271FFF76BFF2B4B93F829200AB10122E4
:1091F00002609A69002A49D0586AD96800229A61A7
:1092000005B0BDE83040FFF797BFD5F804335B07E2
:10921000D0D5D5F80831002BCCD01E4C1C482146A7
:10922000FFF773FF636AA2699A42C3D1E369E168F9
:109230004BB1A3612369E3600023606AE361636269
:10924000FFF77AFFB6E794F829300BB901236B607A
:109250000F4B4FF40172C3F808230023606AA36127
:10926000EEE70B484FF48E71FFF728FF5369002B90
:10927000B0D051690291002391688DF800300191BE
:1092800053616846D2E900139847A3E705B030BDA3
:1092900000200040443800202DE9F843534D90F859
:1092A00004802C2303FB0853064693F82A300C460F
:1092B0009146002B40F096804D490068FFF7DCFE98
:1092C0000746002840F0908022683068511C0BD07F
:1092D0004FF0A04101239340C1F8083502F5E07337
:1092E0004FF0030C41F823C061684B1C1FBF01F510
:1092F000E0734FF0A04C4FF0000E4CF823E0A36950
:10930000C0F8243594F814C0637DBCF1010F4CEA19
:109310000303C0F86C35C0F81415C0F80C251DD136
:10932000A268531C1FBF02F5E0734FF0A0414FF03D
:10933000000C41F823C0E368591C0BD04FF0A04C3F
:1093400001219940CCF8081503F5E0714FF0030EA8
:109350004CF821E0C0F80835C0F810252C2202FB9B
:1093600008F2AB18C3F804902369AB50B9F1000FB1
:1093700020D04FF48E71247FFFF7A0FE4FF4A2712E
:109380003068FFF79BFE32681A4BC2F80433130BA8
:1093900042F307326101002AC9B21EDB1648841865
:1093A00084F800130121520903F01F0301FA03F3AB
:1093B00040F8223033680422C3F800252C2303FB35
:1093C00008530022C3E9062283F829205A610122AA
:1093D00083F82A203846BDE8F883084A03F00F03D3
:1093E000D154E7E70827F5E71127F3E744380020D1
:1093F000599102008000020000E100E014ED00E05D
:109400000279044B2C2101FB02335869003818BF44
:1094100001207047443800202DE9F84F064690F8A7
:10942000048089469246FFF7EBFF044600283CD1B2
:10943000204F2C2508FB057B4FF48E71CBF814A030
:10944000CBF80890CBF820008BF828003068FFF7A5
:1094500035FE3068012383605946FFF737FEDBF89D
:1094600004305D461BBB3068DBF814402B6A9C421D
:1094700011D83368D3F81C21002AFBD00122DA600E
:1094800000202C2303FB087700237B61BDE8F88FC5
:1094900095F828303BB9D0F81C31002BF8D059464C
:1094A000FFF714FEE2E70F20EBE71120EEE720467E
:1094B000ECE700BF443800202DE9F0473A4D07792A
:1094C0002C2303FB075306465C6824B103684FF462
:1094D0000170C3F808032C2303FB0753986950B1AC
:1094E000D869002841D024B133684FF40172C3F821
:1094F0000423112436E09A61D9605862D8612C2384
:1095000003FB075393F829301BB910B93046FFF716
:10951000ECFD4FF02C0808FB075A3068DAF80430ED
:10952000002B37D14FF4A271D046FFF7C7FD30684A
:10953000D0F82491D0F80831D0F84441CBB914B90F
:10954000B9F1000FF3D02C2303FB07550023AB61C7
:10955000B9F1000F24D12CBB95F8291033680122F2
:10956000B1B11A602046BDE8F0871961DA610120C7
:10957000C5E7B9F1000FE6D1002CE4D14146FFF771
:10958000C4FDDAF82430DAF818209A42CFD8DAE7A6
:109590005A60E7E74FF40173C0F804330024E1E7B1
:1095A0000324DFE70F24DDE7443800200023435085
:1095B00082B043580193019B02B070471FB501234D
:1095C0008DF80030044BCDE90110D3E90012684654
:1095D000904705B05DF804FB703800207FB5434A22
:1095E000D2F82461002E60D010464FF49271FFF73C
:1095F000DDFF02238DF80030D2F88034C2F88034C9
:109600000393D2F83C350293394BDA680192002279
:10961000C3E906226846D3E9001290473348D0F8E0
:10962000443173B14FF4A271FFF7C0FF304B9A6918
:109630003AB10022C3E90622D968D0F83C05FFF709
:10964000BDFF2A48D0F82031ABB14FF49071FFF73D
:10965000ADFF0123C360264B5A6962B1D0F84C15A7
:109660000291002299688DF8002001915A616846A4
:10967000D3E9001290471D48D0F858319BB14FF400
:10968000AC71FFF793FF1A4B5A6962B1D0F84C15D1
:109690000291002299688DF8002001915A61684674
:1096A000D3E90012904704B070BDD2F81031002BFE
:1096B000B4D04FF488711046FFF778FF0C4BD2F806
:1096C0003C0599698842A9D1DC69D96864B1D2F8AE
:1096D000005225F02005C2F800521A699C61DA6038
:1096E000DE61FFF76BFF99E79C61FAE7002000401D
:1096F000703800202DE9F8435A4E90F80480242356
:1097000003FB0863044693F820300D469146002B76
:1097100040F0A38054490068FFF7AEFC07460028DC
:1097200040F09D802A682068511C0BD04FF0A0416A
:1097300001239340C1F8083502F5E0734FF0030CA4
:1097400041F823C069684B1C1FBF01F5E0734FF05F
:10975000A04C4FF0000E4CF823E0AB69C0F8243564
:1097600095F814C06B7DBCF1010F4CEA0303C0F8FF
:109770006C35C0F80C25C0F814151DD1AA68531C0F
:109780001FBF02F5E0734FF0A0414FF0000C41F80D
:1097900023C0EB68591C0BD04FF0A04C012199401D
:1097A000CCF8081503F5E0714FF0030E4CF821E0FA
:1097B000C0F80835C0F81025242202FB08F2B318BF
:1097C000C3F804902B69B350B9F1000F2FD04FF4B8
:1097D00088712A7FFFF7EAFE20684FF49071FFF747
:1097E000E5FE20684FF49271FFF7E0FE20684FF429
:1097F000A271FFF7DBFE4FF4AC712068FFF7D6FED5
:1098000023681A49C3F80413190B43F307335201B1
:10981000002BD2B21CDB1648C51885F800230122A4
:109820005B0901F01F0102FA01F140F823102368DF
:109830000822C3F80025242303FB08660023C6E999
:1098400006337361012386F820303846BDE8F8837B
:10985000084B01F00F015A54E9E70827F5E71127F3
:10986000F3E700BF70380020DD95020010034200CE
:1098700000E100E014ED00E00279044B242101FB3B
:1098800002335869003818BF012070477038002033
:1098900001F06043B3F1005F2DE9F04706468846CA
:1098A00092463BD190F80490FFF7E6FF044600286B
:1098B00036D11D4F3068242505FB09754FF4907192
:1098C000C5F814A0C5F80880FFF770FE4FF4AC711E
:1098D0003068FFF76BFE33686A69A968C3F84415FE
:1098E000C3F8482501229A606A68DAB9D3F82021C2
:1098F000D3F858011AB90028F8D00F2007E0002843
:10990000FBD10122DA60D3F85821002AFBD02423AE
:1099100003FB097700237B61BDE8F0871020FBE79C
:109920001120F9E72046F7E770380020F8B501F07C
:109930006043B3F1005F04460F465ED10379304DBA
:10994000242101FB0351496821B100684FF40476DA
:10995000C0F80863242000FB03539E6956B1D86900
:10996000002839D021B123684FF40472C3F80423CE
:10997000112030E09A61DF60DE6120684FF4887169
:10998000FFF714FE20684FF4A271FFF70FFE236863
:10999000C3F83475C3F8382516BB01221A60247940
:1099A000242202FB045252680ABBD3F81011D3F8E8
:1099B0004421D3F82401114302D10028F5D00A46EE
:1099C000242303FB04550023984218BF03209A4226
:1099D000AB6118BF0F20F8BD1F61DA610126CCE72B
:1099E000D3F8002242F02002C3F80022D7E74FF458
:1099F0000472C3F804230020EDE71020EBE700BF5A
:109A0000703800200220FEF78BBF00002DE9F047E0
:109A100080460D46FEF7A4FF0328044610D8012D0A
:109A200010D0022D30D05DB91A48FDF7C1FC1A4B99
:109A300004EB440213449D78184B1B5DAB4219D0D4
:109A4000BDE8F087144E00EB4003F218F55C537844
:109A5000470053B1DFF84C900E484A464FF480411E
:109A6000FDF778FC08B989F8008027443E440B4B89
:109A7000B2781A55002DE3D0094B1B68002BDFD0BC
:109A80002846BDE8F047184700EB4004024804446C
:109A90006578EFE7902A002096380020B138002042
:109AA000AC3800209438002000780221FFF7AEBFC8
:109AB00008B5094B1B7853B10020FEF707FF0120C2
:109AC000FEF704FFBDE808400320FEF7FFBEBDE837
:109AD0000840FEF707BF00BF95380020F8B57A4C64
:109AE000237805461BB100232370FFF7E1FF172DF4
:109AF00000F28780DFE805F00C1717425364757F8A
:109B0000878C878C949999999999C3C8D0D8E3E3A5
:109B1000FFF7CEFF6D48FDF74BFC6D4B002204466E
:109B20001A702046F8BD0020FEF7B6FEF0B1002006
:109B3000FEF7CCFE022D0CBF4FF4E1644FF47A64C3
:109B4000634B1D7000254FF400464FF47A70294690
:109B50004FF4FA620023E4FB060102F097FB2A4669
:109B60000146BDE8F8405948FDF7F4BBFEF7A2FEF8
:109B7000022D0CBFC8244FF4C874E1E70020FEF7A3
:109B80008BFE40B10020FEF7A1FE4FF44874504B0D
:109B900003221A70D6E7FEF78DFEC824F7E70020EF
:109BA000FEF77AFE38B10020FEF790FE4FF47A649B
:109BB000474B0422EDE7FEF77DFE4FF4C874F7E74C
:109BC0000020FEF769FE48B10020FEF77FFE404B03
:109BD00005221A7040F6CD410022C2E7FEF76AFE68
:109BE000F5E70020FEF79CFE394B06221A70002292
:109BF00040F26661B5E70020FEF75CFE344B0722B9
:109C00001A7000248DE701202070FEF789FEEEE730
:109C100001202070FEF784FE00224FF40051A0E7DF
:109C2000FEF76FFE2A4B0C22EAE72A482A4EFDF780
:109C3000BFFBD5F1110504461CD0D8B9012D13D0B6
:109C4000C820454321464FF400474FF47A704FF443
:109C5000FA620023C5FB070102F018FB2246014609
:109C60001C48FDF777FB04460220FEF723FE012384
:109C7000337056E70220FEF729FE0023F8E7FFF7CE
:109C800017FF134B1222BBE7FFF712FF0020FEF76E
:109C900011FE0F4B1322B3E7FFF70AFF0120FEF777
:109CA00009FE0B4B1422ABE7FFF702FF0020FEF783
:109CB00001FE0120FEF7FEFD054B1522A0E7FEF791
:109CC00020FE034B1D709CE7A8380020B02A00201E
:109CD000B0380020702A002095380020044B1B6803
:109CE000DB0703D5034B1878FFF7F8BE704700BFBA
:109CF000A4380020B038002010B5002914BF032478
:109D00000024FEF73FFE800000F1A040D0F80027BD
:109D100022F44032C0F80027D0F8003743EA044369
:109D2000C0F80037002010BD032801D8FEF70ABE96
:109D300000207047044B1B6813F0010301D0FFF7AC
:109D4000CDBE1846704700BFA438002038B51C4B64
:109D500018601C4B10F00204054619601AD01A4B0B
:109D60001A480E221A700F22DA7010229A711122EC
:109D70005A72042140F23332FDF7CAF8044648B95A
:109D8000FDF71EF9044628B90146114A1148FDF7AE
:109D9000CFFA0446EB0711D50120FEF7F9FD6CB9A7
:109DA00021460D4A0D48FDF7C3FA044630B9BDE817
:109DB00038400B4A0B480121FDF7BABA204638BD9E
:109DC000A4380020AC38002096380020BCCF020018
:109DD000A99A0200E0CF0200DD9C0200E4CF02005D
:109DE000059A0200DCCF0200032811D8012A0AD10B
:109DF00001290FD100F10E02D2B20D4B00EB400051
:109E00001A54002070470129F7D0022904D049B123
:109E1000072070470022F8E7054B00EB400018448C
:109E20004270EEE7024B00EB400018448270E8E716
:109E300096380020032802D80121FFF75DBF0620D5
:109E4000704708B5012202210020FFF7CDFF08B1BD
:109E5000072810D1072202210120FFF7C5FF08B112
:109E6000072808D100210A220846FFF7BDFF10B1DC
:109E7000072808BF002008BD0388102B10B502D0AA
:109E8000112B1ED010BD1A4C2168B1B90122084611
:109E9000FFF7AAFF08B1072824D1072202210120D9
:109EA000FFF7A2FF08B107281CD1042202210020DD
:109EB000FFF79AFF08B1072814D123680133236004
:109EC000E0E70B4A1368013B1360002BDAD1FFF780
:109ED000B8FF0028D6D0074B1B68002BD2D0BDE8B6
:109EE00010401847034B1B68002BE6D09847E4E767
:109EF000BC380020B838002008B50020FFF79AFFD2
:109F000008B1062806D10120FFF794FF10B10628FA
:109F100008BF002008BD00000D4B10B518600C46AE
:109F200029B10120FFF700FF40B102232370094B44
:109F30001B6853B9BDE81040FFF783BFFFF7F4FE7D
:109F400008B10B23F2E72070F1E7002010BD00BF3D
:109F5000B8380020BC38002075DF704776DF7047C6
:109F60007FDF70478FDF7047014A8421FDF76AB8B1
:109F7000E8CF020070B50378012B04463DD0022BD8
:109F800029D03BBB244C254D20882844FDF7EAFB13
:109F9000238801339BB21D44238015F8012C0A2A23
:109FA00005D00D2A03D01E4A12889A4212D81B4DA2
:109FB0001C4E22882946304601F0F4FE082807D0BE
:109FC0001328F6D020B1184A40F23711FDF73AF8BD
:109FD0000023238070BD1548154B16491B1ADB085A
:109FE0001B0443F00100FCF7EFFC0F4A4FF4A17192
:109FF0006068BDE87040FDF725B80C480C4B0E4971
:10A000001B1ADB081B0443F00100FCF7DDFC064AC9
:10A0100040F24711ECE700BFB4390020C0380020FF
:10A02000E62A0020443B0020E8CF020070C6020070
:10A0300098C602004CD002007ED0020070B50546E2
:10A040001F4C2048204E2A78241AE408240444F0A7
:10A05000030431462046FCF7BBFCAA881B49204676
:10A06000FCF7B6FCAA7931462046FCF7B1FC2A7A07
:10A0700017492046FCF7ACFCEA8916492046FCF754
:10A08000A7FC2A8C14492046FCF7A2FCEA8A134953
:10A090002046FCF79DFCAA7C11492046C2F34002F1
:10A0A000FCF796FCAA7C0F49204602F00102FCF75F
:10A0B0008FFC29460C48BDE8704001F093BD00BFFD
:10A0C00098C6020070C60200AAD00200B5D00200F5
:10A0D000C0D00200D9D00200ECD00200FFD00200B4
:10A0E00010D102001FD10200443B00200388212B25
:10A0F00013B504460FD80F2B11D9103B112B0ED8D6
:10A10000DFE803F00F3B0D5A0D0D0D0D0D0D0D4A3F
:10A110000D0D0D660D713B2B76D0562B7ED002B007
:10A1200010BD444B44484549C01AC008000440F0E3
:10A130000300FCF749FCA1884148002201F080FEA1
:10A1400020B1404A40F2A311FCF77CFF0720FFF743
:10A15000F1FD20B13B4A4FF4D371FCF773FFA188A6
:10A16000394800F0E1FD0028D9D0364A4FF4D571C6
:10A1700002B0BDE81040FCF765BF2E4B2E48A28808
:10A180003249C01AC008237A000440F0030002B02C
:10A19000BDE81040FCF725BC037A022BBFD1254B4C
:10A1A00025482B49C01AC008000440F0030002B043
:10A1B000BDE81040FCF708BC002380881A468521C2
:10A1C000FFF7CEFE0028AAD01E4A4FF4DF71CFE77A
:10A1D00000F108018088FFF7BFFE00289FD0194AD0
:10A1E00040F2C511C4E7002380888DF8043001A92E
:10A1F0008DF80530FFF7B6FE002890D0114A40F2E6
:10A20000D111FCF71FFF8AE780881321FFF7A6FE14
:10A21000002884D00B4A40F2D911A9E78088132185
:10A22000FFF79CFE00283FF47AAF064A40F2E111A6
:10A230009EE700BF70C6020098C6020033D102003C
:10A24000443B0020E8CF0200E82A002043D102006E
:10A2500071D1020008B5094801F080FB18B1084A25
:10A260008E21FCF7EFFE0120FFF764FD28B1BDE869
:10A270000840034A9121FCF7E5BE08BD703B002071
:10A28000E8CF02002DE9F0470B78012B06460D467A
:10A2900029D0022B6DD0002B79D13E4B3E4C3F494B
:10A2A000E41AE408240444F003042046FCF78CFB81
:10A2B000698805F10E02304601F0C2FD20B1384A2E
:10A2C0004FF4B171FCF7BEFE304601F037FD20B10E
:10A2D000334A40F26511FCF7B5FE20463149BDE82E
:10A2E000F047FCF771BB2C4C2A4B8E688F89DFF846
:10A2F000C090DFF8ACA0E41AE408240444F00104A0
:10A300000025BD421CD3F31913F8013C0D2B2BD0B3
:10A31000DFF8A0803A463146404601F043FD05464D
:10A32000A8B31128F6D002461F492046FCF750FB7F
:10A3300028461B4ABDE8F04740F21111FCF782BEE7
:10A34000705DFDF729FA804660B11128F8D02A46E1
:10A3500049462046FCF73CFB52464FF4807140468C
:10A36000FCF770FE0135CCE70A20FDF715FA11283D
:10A37000CDE7084B08480D49C01AC008000440F05A
:10A380000300FCF721FBBDE8F047FFF763BFBDE822
:10A39000F08700BF70C6020098C602008FD102008D
:10A3A000E8CF0200A3D10200F6D102001FD20200C2
:10A3B000D0D10200443B00201FB50378052B12D0FA
:10A3C000062B19D0042B2CD1174B18481849C01A4A
:10A3D000C008000440F00300FCF7F6FA04B0BDE842
:10A3E0001040FFF737BF4068D8B1124AA02104B02F
:10A3F000BDE81040FCF726BE41680B4C0B488B783B
:10A400004A78001B8C7903944C7902940C7901945E
:10A41000C008C97800910004074940F00300FCF728
:10A4200006FB04B010BD00BF70C6020098C6020053
:10A430005BD20200E8CF02002DD2020010B5044624
:10A440000020FFF777FC20B1074A4FF4C071FCF7FA
:10A45000F9FD3CB9FFF750FD20B1034A40F28711E6
:10A46000FCF7F0FD012010BDE8CF02000A8840F69D
:10A4700077239A4213B50C4617D10D4B0D480E4960
:10A48000C01AC008000440F003000190FCF79CFAD9
:10A49000A3880A4A0A490198033B9BB213801A46D3
:10A4A00002B0BDE81040FCF79CBA02B010BD00BF7E
:10A4B00070C6020098C602006BD20200E62A002095
:10A4C00087D20200042808B506D00A2813D1BDE8B7
:10A4D00008400020FDF7E4BE074B13215888FFF722
:10A4E0003DFD30F0080306D0BDE80840034A40F2C5
:10A4F0003121FCF7A7BD08BD443B0020E8CF020096
:10A5000008B50B490B4800F0EDFD20B10A4A40F2B6
:10A510001721FCF797FD0748F72100F0F7FD30B150
:10A52000BDE80840044A40F21A21FCF78BBD08BD83
:10A530006DA402005C3B0020E8CF020000B54FF4A0
:10A5400080418BB00020FCF7A1F820B15B4A40F2BB
:10A550007D21FCF777FDFBF7D7FFFCF7B7FE20B1B5
:10A56000564A40F27521FCF76DFD554D0FCD04ACF8
:10A570000FC495E80300534B534A00934FF4807384
:10A5800084E80300CDE902230193504A072369467A
:10A5900004A8FDF78FF820B1484A40F25121FCF79A
:10A5A00051FD4B490120FFF7D1FB20B1434A40F256
:10A5B0006A21FCF747FD04A90020FFF7ADFC20B19C
:10A5C0003E4A40F26D21FCF73DFD424B424C049364
:10A5D00004A8059400F06AFB20B1384A4FF42671B4
:10A5E000FCF730FDFDF71EFE20B1344A40F2892110
:10A5F000FCF728FD01F080FC20B1304A40F2F31155
:10A60000FCF720FD002304A90120049301F00CFDB8
:10A6100020B12A4A40F2F911FCF714FD04A801F018
:10A62000C3FD20B1254A40F2FD11FCF70BFDFFF7F9
:10A6300067FF2A4B04932A4B2A4804A9CDE9053425
:10A6400001F016FB20B11D4A40F25F21FCF7FAFC35
:10A65000102200210DEB020001F053FF0123224ADA
:10A6600022488DF8143004A98DF81C3001F018F937
:10A6700018B1124ACB21FCF7E5FC1D4A1B48022108
:10A6800001F07AF818B10D4ACE21FCF7DBFC17482F
:10A6900000221F2101F0E1F818B1084AD121FCF78E
:10A6A000D1FC144801F0EAFEFFF7D4FDFCF740F8B6
:10A6B0000028FBD1FDF7CCFDF8E700BFE8CF020092
:10A6C000E0D20200EC3B0020EC3C0020759F020031
:10A6D000C5A402003DA00200D02A002085A20200ED
:10A6E000699F0200443B0020B9A30200703B002098
:10A6F0000DD30200AFD202000369C26893429CBF2F
:10A7000080681B18013B981A70472DE9F843D0E97F
:10A7100002940546A9EB04084068904520440F4682
:10A72000144404D901F0C4FEEC60BDE8F88342464D
:10A73000A4EB090401F0BCFE6868224607EB08019F
:10A74000F0E72DE9F843C5680646894617464FF0FD
:10A7500000083469B3687068A54228BFE418013C5A
:10A76000621B5C1BBC4228BF3C46944228BF144677
:10A7700049462844224601F09BFEB3682544AB427B
:10A7800008BF00253F1BA044A144F560E1D140462D
:10A79000BDE8F88310B5114C114AA2610223C4E947
:10A7A0000433104BE361A2644FF400730E4A0F4967
:10A7B0002362E26400231022E01DA3626362E3626D
:10A7C000A3656365E365226501F0CEFE0849204676
:10A7D00001F0CAFE2023A37110BD00BFEC3D002094
:10A7E00013D30200743E0020643E00201CD30200FC
:10A7F00020D3020070B5164B182400FB04451D44FD
:10A8000004FB00331646DC6A012C0ED0022C18D053
:10A81000E4B92846FFF770FF864204D8324628463E
:10A82000FFF773FF3446204670BD2846FFF764FFEC
:10A830008642344628BF044622462846FFF765FF75
:10A84000F1E72846BDE87040FFF77BBF0024EAE748
:10A85000EC3D0020FFF79EBF64DF704730B5C8B104
:10A86000F2B10024651C8D4206DA1588A54212D883
:10A8700005196D789D420ED1A14211D9005D48B1F4
:10A88000013880B230B10234A3B210FA84F4A1428C
:10A8900006DB138030BD055D01352C44A4B2E1E731
:10A8A0000020F7E7F7B500230646ADF8063014465A
:10A8B00012B9002003B0F0BD09230DF10602FFF725
:10A8C000CDFFBDF806700546002FF2D00028F0D06D
:10A8D000204601F092FEA8420246EAD1F119204634
:10A8E00001F092FDB0FA80F04009E3E72DE9F04372
:10A8F00087B0002306460C461046ADF8063002AA83
:10A9000010230DF105018DF80530FFF7A5FF1EB9E5
:10A91000002007B0BDE8F0830028F9D19DF805506C
:10A92000042D29D0102D29D0022DF2D10323BDF8FA
:10A9300006206AB90DF1060221463046FFF78EFF68
:10A94000BDF806301BB92B463046FFF787FF04469B
:10A95000BDF80670002FDBD09DF805800025C146AC
:10A96000AC42D5D9E819424602A9304401F04CFD69
:10A9700038B14D44ADB2F3E70523D8E706250723E8
:10A98000D5E70120C5E7000030B50B4B19680B4B2C
:10A990000022914201D1002009E09D788478A542EF
:10A9A00006D11D880488A54202D1054B186830BD28
:10A9B00001320433EDE700BF7C40002080400020DE
:10A9C000744000202DE9F84F90F8C6A24FF0760BA6
:10A9D00004460AFB0B0088469146FFF7D5FF074661
:10A9E00068B3D4F8CC52052D29D804EBC5165A46C5
:10A9F000A6F8D2920BFB0A4106F5357001F058FD1E
:10AA0000B8F1000FC6F84C730E4F14BF0023022399
:10AA100086F8D0323B6801359D42C4F8CC520ED145
:10AA200004F534750026EB6F284698473B680136DD
:10AA30009E4205F18005F6D30023C4F8CC32BDE870
:10AA4000F88F00BF7C40002030B5A1B004460D4611
:10AA50007C22002101A801F054FD03238DF804306D
:10AA6000044BADF806501B6802940BB101A898473F
:10AA700021B030BD744000202DE9F041074691F827
:10AA8000C60276234FF00008A0B081F8C88200FB10
:10AA900003100C461546FFF777FF064660B17C228F
:10AAA000414601A801F02DFD01238DF80430ADF8D9
:10AAB0000650029701A8B0472946204620B0BDE8BD
:10AAC000F041FFF7C1BF000030B504468BB00D4622
:10AAD0002022002102A801F014FD94F8C53294F858
:10AAE000C61213B3013BDAB276234B43122000FBAC
:10AAF000023323445B8A01339BB2ADF804307623E2
:10AB000003FB01412A460B89ADF8063003238DF87B
:10AB10000830019BCDE90543064B0493064B02A97F
:10AB2000186800F0FBFC0BB030BD762303FB01433B
:10AB3000DB88E2E779AA020098400020F0B50446DD
:10AB400089B020220D466846002101F0DAFC94F815
:10AB5000C7321E4A01331268DBB2934284F8C7320F
:10AB60004FF000022AD294F8C632194F84F8C52259
:10AB70000133DBB2762113FB01F057F8237084F820
:10AB8000C632261827504B433271E358CDF81230A5
:10AB9000104B02930222104B8DF800200122ADF8D9
:10ABA0001020186803942A46694600F0B7FC18B1D3
:10ABB0002A462146FFF760FF09B0F0BD84F8C8229D
:10ABC00029462046FFF740FFF6E700BF7C40002003
:10ABD0008040002079AA0200984000202DE9F0472B
:10ABE000044688B00D46164600212022684601F032
:10ABF00088FC94F8C6C294F8C51276231CFB03F2B5
:10AC0000A0184FF0120E07791EFB012301F1010C71
:10AC10000A33BC4523441CD004F11C0C00F122086B
:10AC200007F1FF399444CAB2974216D989451B8966
:10AC300019D00EFB01FA013338F80A2093422AD1C9
:10AC40000CEB0A0394F8C522013284F8C5220131C5
:10AC5000E9E71B890289934208D101232B70002068
:10AC600008B0BDE8F0870289934218D001339BB247
:10AC7000ADF810300B4B029300210B4B29700421CF
:10AC80008DF80010ADF8122018680394324669461A
:10AC900000F044FCE4E7013A9BB292B2E8E70023FB
:10ACA000D0E700BF79AA02009840002010B570B12B
:10ACB000026862B1436853B1064900200860064942
:10ACC00001240C7005490A60054A136010BD0E206E
:10ACD000FCE700BF7C40002078400020744000204A
:10ACE0009840002010B5044680B10C4B1B787BB116
:10ACF000FFF74AFE70B90A4A1368052B0CD80949B8
:10AD0000246841F823400133136010BD0E20FCE796
:10AD10000820FAE70020F8E70420F6E77840002052
:10AD20007C40002080400020F0B50D468BB00446EA
:10AD300000283BD0204B1B78002B39D01F4B1B68C1
:10AD4000002B35D090F8C812002933D14FF4BA62E5
:10AD50001B4F019101F0D5FB0199202202A801F0BF
:10AD6000D0FB3868294600F079FCE8B9154BC4F8E7
:10AD7000CC0284F8C502A4F8C60218682060022339
:10AD80008DF808300126104BCDF81A00A4F8CA52ED
:10AD90003868ADF818602A4602A90594049300F0BB
:10ADA000BDFB08B984F8C8620BB0F0BD0E20FBE70C
:10ADB0000820F9E71120F7E7784000207C400020C8
:10ADC000984000208040002079AA02002DE9FF4130
:10ADD0000C46054660B159B1974B1B7843B10388C7
:10ADE000322B67D007D8112B00F01881302B1FD0E1
:10ADF00004B0BDE8F081332BFAD18288B1F8CA32B1
:10AE00009342F5D1C08891F8C6C291F8C562002876
:10AE100000F0C080762101FB0C41002309798DF8F8
:10AE20000F30731C8B4200F0E68084F8C532A5E039
:10AE30008388B1F8CA229A42DAD1C3887BBB91F8E1
:10AE4000C632762202FB03130269C3F8062091F88A
:10AE5000C432827A1344062B0EDC81F8C432A988EE
:10AE60002046FFF731FE0028C2D0AA88214604B050
:10AE7000BDE8F041FFF700BE062381F8C4326F48F9
:10AE80006F4B7049C01AC008000440F002000190E6
:10AE9000FBF79AFD6C490198FBF796FDDFE720462A
:10AEA0000021FFF78FFDA988204604B0BDE8F041DE
:10AEB000FFF744BE8288B1F8CA329A4298D1C3885B
:10AEC000002B57D191F8C672762317FB03F701EBDD
:10AED0000708837A98F804603344062B25DC88F849
:10AEE0000430122212FB0672334605F10C01224493
:10AEF000002098F80460B34201F10A0102F1120245
:10AF000027D31222013B02FB034394F8C622762189
:10AF10003B4401FB0242598A138999422AD2062EE8
:10AF200028D0A98884F8C5629AE7062388F80430F7
:10AF30004248434BCA5B4549C01AC008000440F070
:10AF400002000190FBF744FD41490198FBF73CFDED
:10AF5000C7E751F80A6C42F8086C51F8066C42F8E1
:10AF6000046C31F8026C168050809080D080108183
:10AF70000133BEE7002384F8C532AA880DF10F0122
:10AF80002046FFF72BFE002842D0AA882146FFF773
:10AF900073FD2DE7762303FB0CF3122707FB063323
:10AFA000B5F80AE0294623447045BFF433AFCF8992
:10AFB000A7F52457082F08D8DFE807F0141705076E
:10AFC000070707071A008F899F829F8A3FB1DF8A90
:10AFD0002FB11F8B1FB15F8B002F7FF41BAF013090
:10AFE0000631E1E78F89DF82EFE78F891F83ECE786
:10AFF0008F895F83E9E701238DF80F302046AA8807
:10B000000121FFF7DFFCA9882046FFF797FDEFE657
:10B010009DF80F30002B3FF4EBAEEFE7B1F8CA32EA
:10B0200082889A4201BF002381F8C8324FF6FF732D
:10B03000A1F8CA32DCE600BF78400020B0C60200AA
:10B0400070C6020027D3020046D302008BD3020051
:10B05000D1D3020090DF7047A5DF7047B5DF70479E
:10B060007FB50023ADF80810ADF80A106A4602A9B2
:10B070000646ADF80C30ADF80E300093ADF8043054
:10B08000FFF7E8FF054600B3114B124CE41AE40841
:10B09000FDF77AFA240444F0010403460E493246CF
:10B0A0002046FBF79EFCBDF80020BDF8023052EAB6
:10B0B000030103D009492046FBF793FCBDF80420A7
:10B0C0001AB107492046FBF783FC284604B070BD3F
:10B0D00070C60200D0C6020037D4020081D402003C
:10B0E000C0D4020080B14FF0F7130360FB2303715B
:10B0F000F723C3801723038141F6FB32002301614C
:10B1000043818281184670470E20704730B1A1F10B
:10B110001703E02B04D84180002070470E207047B1
:10B120000720704713B5034680880C46B8B91A88C3
:10B13000242A00F09C8014D8112A74D0232A00F00D
:10B14000A780102A3ED0A37A4BB1E1880020FFF7F8
:10B1500083FF002840F0A2804FF48073638102B027
:10B1600010BD3A2A68D0552AEDD1DB88C988A07273
:10B17000172B38BF17238B4228BF0B462381FFF7BD
:10B180006DFF60B1FDF700FA4E4B4F4902464F4844
:10B190001B1ADB081B0443F00100FBF719FCE27AE1
:10B1A000002AD0D12369002BCDD040F67721ADF80D
:10B1B00002202289ADF80010ADF80420694620462F
:10B1C0009847C0E7DB7B0A790A73012B13D0022B67
:10B1D00014D0E18823898B4205D20020FFF73CFF81
:10B1E00070B90123E372217B637B8B42ABD20020D9
:10B1F000FFF736FFA7E70B88E380EAE74B88FBE71A
:10B20000112802D10123A372EDE7FDF7BDF92D4B03
:10B210002F4902462D481B1ADB081B0443F001008E
:10B22000FBF7D6FBDFE7F723CB8017230B8141F633
:10B23000FB3348818B8186E75B89CA88934228BFAC
:10B240001346172B0A6938BF17230B8162B1C97ADD
:10B2500051B140F67721ADF80010ADF80200ADF81D
:10B260000430694620469047002363816BE71A7AD1
:10B270000B694A73002B3FF466AF4DF67A218DF8C7
:10B280000500ADF80010ADF802008DF8042095E738
:10B29000197A237B994228BF1946A9E711283FF460
:10B2A0005EAFFDF771F9074B0949024607481B1AC3
:10B2B000DB081B0443F0010002B0BDE81040FBF7BF
:10B2C00087BB00BFD0C6020047D5020070C602008F
:10B2D00016D502009BDF70479DDF70479EDF7047E9
:10B2E000A1DF7047A3DF7047AEDF704730B5048839
:10B2F00000239AB2944206D9456835F813508D421E
:10B3000003F10103F5D1104630BD8B6910B50C4631
:10B310001988102913D8023189B2FCF72AFF60601E
:10B3200078B1A16900230222FCF764FFA26960687A
:10B330001288E1690223FCF75DFF002010BD09209F
:10B34000FCE70420FAE710B50C46C98A10290AD890
:10B35000FCF70FFF606040B1E28AA1690023FCF7AF
:10B3600049FF002010BD0920FCE70420FAE7000097
:10B37000F0B58BB004460022C068124E0DF10601F4
:10B38000FDF75AF8142508B10BB0F0BDBDF8063032
:10B39000A76805FB0377002202A93846FDF74CF8A1
:10B3A00030B1E06800220DF10601FDF745F8EAE74B
:10B3B0009DF8083056F82330002BECD00398FCF7AA
:10B3C000C2FEE8E7F4D50200F7B505460C4C0D487F
:10B3D0000092241AE40824040B460F4616460A4934
:10B3E0002A7844F00100FBF706FBAB6833B1E9684B
:10B3F0003A46304603B0BDE8F040184703B0F0BD10
:10B40000D8C6020070C6020083D50200F0B58FB026
:10B410000D46012206A90646FDF70EF8044690B92E
:10B420009DF81830052B65D8DFE803F0030F1C24C6
:10B43000292EBDF82A20BDF828102846FFF750FF16
:10B440000446112C40D10FB0F0BD02A90798BDF8F9
:10B450002E200C910023FCF7D7FE0AA92846FFF7FF
:10B4600041FFEDE7BDF828100DF12A022846FFF74D
:10B4700031FFE5E70AA92846FFF72EFFE0E70AA912
:10B480002846FFF72BFFDBE70DF1060402AB214650
:10B4900007980D9302220023FCF7B6FEBDF80620A4
:10B4A0000D9907980C940223FCF7AEFE0AA92846D2
:10B4B000BDF80670FFF718FF04460028C1D1BDF89B
:10B4C0000630BB4218BF0C249DF818200F4B53F8D0
:10B4D000223013B10798FCF736FE002206A9304649
:10B4E000FCF7AAFF002CAED02246294606A8FFF79B
:10B4F0006BFFA8E70648074B07491B1ADB081B042C
:10B5000043F00200FBF760FADEE700BFF4D502006B
:10B5100070C60200D8C60200CDD502002DE9F8435E
:10B520000F461446054620B94FF00E084046BDE8C8
:10B53000F8830029F8D0FFF71BFF3B78052B6AD86A
:10B5400021462846FFF7D2FE2B88834263D014267B
:10B550004643A8683044FCF768FF002860D03B7879
:10B56000052B3BD8DFE803F00311171E242A7A8A43
:10B57000398A2046FFF7B4FE112851D058B302464D
:10B5800021463846FFF720FF25E007F1100120464D
:10B59000FFF7A8FEF0E7398A07F112022046FFF70D
:10B5A00099FEE9E707F110012046FFF795FEE3E772
:10B5B00007F110012046FFF791FEDDE7BB6907F1B7
:10B5C00010012046B3F80080FFF78EFE30BBBB6948
:10B5D0001B8843450DD14FF00008A7E71B4B1C48C3
:10B5E0001C49C01AC008000440F00200FBF7ECF947
:10B5F000F1E70C20C3E72869002895D03946984721
:10B600008046A0B192E73B7859F82330BBB1786807
:10B61000FCF799FD13E04FF0070887E71128AED13A
:10B62000DFF834903B7859F82330002BE3D1A86839
:10B6300039463044FCF7A4FE80460028E3D1A868D0
:10B6400021463044FFF7E2FE70E700BF70C60200FB
:10B65000D8C60200CDD50200F4D50200F8B50D46DB
:10B66000044678B3FFF784FE29462046FFF73EFEE6
:10B670002288824211D00020F8BD616831F8131091
:10B68000814203F101030BD0208800234FF6FF769F
:10B690009AB282420BD30420EEE700234FF6FF70EC
:10B6A00099B28A42E9D82069FCF74BFDECE7616862
:10B6B0005A0001EB43078A5AB24203F10103E7D172
:10B6C0003D80D8E70E20D7E737B50C4608B301B365
:10B6D0000588112D15D181882046FFF707FE2388A4
:10B6E000ADF80600834214D0112D14D163684FF6D3
:10B6F000FF7223F810200DF10601E068FCF740FE10
:10B7000007E0A5F130031F2BE5D9A5F150031F2B4E
:10B71000E1D903B030BDA368142202FB0030FFF76B
:10B7200075FEF6E78ADF70478BDF70478CDF704766
:10B7300030B590F8343089B004460D46D3B190F856
:10B740003E300193FFF7F0FF1422002103A800F020
:10B75000D8FE019B04F1360204F14001A81CFFF75A
:10B76000E5FF05238DF80C30049018B1236D0BB163
:10B7700003A8984709B030BDF8B51546044600281F
:10B7800057D0002A55D0022920D0032944D00029BF
:10B7900051D1104600F031FF0138C0B21F284CD8FB
:10B7A00094F82060002E4AD12946204600F0FEFE83
:10B7B00058B1012384F82030284600F01EFF2946A6
:10B7C0000246204600F074FE0020F8BD90F8296083
:10B7D000AEBB00F1220706222946233000F014FEFA
:10B7E0000028F2D0334694F82920E95CC2EBC2026B
:10B7F0003A441A440133062B5170F4D194F829309D
:10B80000C3EBC303FA5C6FF34702FA5494F8293090
:10B81000013384F82930D7E790F8300078B9A28D49
:10B820002B889A42D1D0012384F830302B68E36210
:10B83000CBE70E20C9E70720C7E70C20C5E70420A7
:10B84000C3E740B1002380F8213080F82A3080F827
:10B850003130184670470E20704710B50446B0B11D
:10B86000CB0616D0FFF7EDFF8B0744BF012384F80A
:10B870002A30C80744BF012384F821304B0744BF56
:10B88000012384F8313084F83220002010BD0E20CE
:10B89000FCE70720FAE790F84000C0F3C0007047CB
:10B8A000F8B50D460446002855D002650021342223
:10B8B00000F027FE002D3AD02B7984F834302B7B12
:10B8C00084F83E302B68FBB104F1400203F1080715
:10B8D00018685968164603C60833BB423246F7D18A
:10B8E000186830609B88B380AA68C2B11368C4F836
:10B8F00036305368C4F83A3004F1540363671F23A9
:10B90000A4F878300020F8BD236C03F0E30343F47F
:10B91000200343F48273236450236364E4E7062323
:10B92000E3861823A3634FF4C873A387E4E7236C6B
:10B9300084F8345003F0E30343F4200343F48273A8
:10B940002364502363640623E3861823A3634FF420
:10B95000C873A387D0E70E20D5E7000010B50446D2
:10B9600086B048B31422002101A800F0CAFDFFF7F9
:10B97000DBFE2046FFF78FFF30B1236D23B101229C
:10B980008DF8042001A8984704F1740104F14000E7
:10B99000FFF7C8FE044630F008000BD00748084BFC
:10B9A00008491B1ADB081B0443F001002246FBF781
:10B9B0000FF8204606B010BD0E20FBE770C602004F
:10B9C000C0C602000CD602002DE9F04F80468FB0B1
:10B9D00038F8082B1B2A07460C4600F0E6801D2A83
:10B9E00015D0102A31D1002109A800F08AFD0623C4
:10B9F0008DF82430BB88ADF82C3004F140030D9352
:10BA0000236DCDF82880002B40F0E3801DE010224C
:10BA1000002109A800F075FD04F1400320460D93B4
:10BA2000FFF739FF04F1740B90B102238DF8243035
:10BA300009A8236DCDF82880984759460020FFF7C4
:10BA400071FE41462046FFF773FE0FB0BDE8F08F50
:10BA500094F83230019394F82A9094F821300393AB
:10BA600094F831300293B9F1000F48D094F829606E
:10BA7000054607F10B0104F1230AEAB296422BD8DE
:10BA80004FF000094D460126039B4BB194F820A0CE
:10BA9000B98C0136F6B2224604EB4A1A924531D1EE
:10BAA000029B002B5ED094F830200392039894F808
:10BAB0003230B98C04F12C02013602EB8000F6B270
:10BAC00004904FF0000A049882422FD1002B3CD002
:10BAD000039B534546D13BE0C5EBC50006225044CD
